:10000000130E1000AB000000639A0012130E2000C4
:100010009300000013010000AB80200063900012E9
:10002000130E3000B700020193804030130100002E
:10003000AB81200063940110130E40009300000177
:100040003701020213012120B7010202938121200E
:100050002B0231006394400E130E500093004000B9
:100060003701010113011110B70101019381111032
:100070002B0231006394400C130E60009300400289
:100080003701030313013130B7010303938131308A
:100090002B0231006394400A130E70009300C003DA
:1000A0003701010113011110B7110F0F9381F1F006
:1000B0002B02310063944008130E8000930040012E
:1000C0003701020113014130B7010304938111206C
:1000D0002B02310063944006130E90009300000041
:1000E0003701FFFF13011110B70104049381414050
:1000F0002B02310063944004130E90009300000023
:100100003701FFFF13011110B731323293812123E0
:100110002B02310063944002130EA000930080FC78
:100120003701010113011110B731323293812123BC
:100130002B023100639440006F000001370110F082
:10014000130141F22320C101370110F0130101F224
:100150002320010013000000130000001300000022
:0C0160001300000013000000130000005A
:00000001FF
