:10000000130E100093000000AB1000006394000674
:10001000130E20009300000013010000AB9020009D
:10002000639A0004130E30001302A0009300A00096
:10003000AB10000063904004130E40001302E00177
:10004000930000001301A00093014001AB103100A8
:1000500063924002130E5000130290079300800336
:100060001301F00293012001AB10310063944000B2
:100070006F000001370110F0130141F22320C1018C
:10008000370110F0130101F22320010013000000DA
:100090001300000013000000130000001300000014
:0400A0001300000049
:00000001FF
