:10000000130E100093000000B30000066390001A66
:10001000130E20009300000013010000B38020069F
:1000200063960018130E3000B70002019380403031
:100030001301000093010000B381200663980116AC
:10004000130E40001302E0069300A0001301A0006D
:100050009301A000B3812006639A4114130E50004F
:10006000371200001302A2A5930080031301F002CF
:1000700093012001B3812006639A4112130E6000A0
:10008000B7C2EB0B93821220B7200000938000715F
:1000900037510000130101E293011000B3812006E3
:1000A00063965110130E700093001000130120008E
:1000B000B3801006639C200E130E80009300100086
:1000C00013016000B3801006B38010066390200E09
:1000D000130E9000930220FE9300A0FF1301600016
:1000E00093016000B38120066392510C130EA000AF
:1000F000B71200009382C288930060FE1301C0FA19
:1001000093014000B38120066392510A130EB000A0
:100110009302401F930020031301B0009301E0FC01
:10012000B381200663945108130EC0009300200091
:1001300013012000930120001302200093022000ED
:100140009303A000B3812006B301520663907106A9
:10015000130ED00093002000130120009301200013
:1001600013022000930220009303E000B3812006D5
:10017000B3015206B3812006639A7102130ED000B8
:10018000930020001301200093012000130220009F
:100190009302200093036001B3812006B30152064D
:1001A000B3802106639470006F000001370110F0E6
:1001B000130141F22320C101370110F0130101F2B4
:1001C00023200100130000001300000013000000B2
:0C01D000130000001300000013000000EA
:00000001FF
